{
  "_format": "hh-sol-artifact-1",
  "contractName": "Lottery",
  "sourceName": "contracts/Lottery.sol",
  "abi": [
    {
      "anonymous": false,
      "inputs": [
        {
          "indexed": true,
          "internalType": "address",
          "name": "depositor",
          "type": "address"
        },
        {
          "indexed": false,
          "internalType": "uint256",
          "name": "amount",
          "type": "uint256"
        }
      ],
      "name": "Deposit",
      "type": "event"
    },
    {
      "anonymous": false,
      "inputs": [
        {
          "indexed": true,
          "internalType": "address",
          "name": "winner",
          "type": "address"
        }
      ],
      "name": "Winner",
      "type": "event"
    },
    {
      "inputs": [],
      "name": "claim",
      "outputs": [],
      "stateMutability": "nonpayable",
      "type": "function"
    },
    {
      "inputs": [],
      "name": "getContractBalance",
      "outputs": [
        {
          "internalType": "uint256",
          "name": "",
          "type": "uint256"
        }
      ],
      "stateMutability": "view",
      "type": "function"
    },
    {
      "inputs": [],
      "name": "join",
      "outputs": [],
      "stateMutability": "payable",
      "type": "function"
    },
    {
      "inputs": [],
      "name": "lotteryPrice",
      "outputs": [
        {
          "internalType": "uint256",
          "name": "",
          "type": "uint256"
        }
      ],
      "stateMutability": "view",
      "type": "function"
    },
    {
      "inputs": [],
      "name": "nextLotteryPrice",
      "outputs": [
        {
          "internalType": "uint256",
          "name": "",
          "type": "uint256"
        }
      ],
      "stateMutability": "view",
      "type": "function"
    },
    {
      "inputs": [],
      "name": "participants",
      "outputs": [
        {
          "internalType": "address[]",
          "name": "",
          "type": "address[]"
        }
      ],
      "stateMutability": "view",
      "type": "function"
    },
    {
      "inputs": [],
      "name": "selectWinner",
      "outputs": [],
      "stateMutability": "nonpayable",
      "type": "function"
    },
    {
      "inputs": [
        {
          "internalType": "address",
          "name": "",
          "type": "address"
        }
      ],
      "name": "winners",
      "outputs": [
        {
          "internalType": "uint256",
          "name": "",
          "type": "uint256"
        }
      ],
      "stateMutability": "view",
      "type": "function"
    }
  ],
  "bytecode": "0x6080604052670de0b6b3a764000060035534801561001c57600080fd5b50610c018061002c6000396000f3fe60806040526004361061007b5760003560e01c80636f9fb98a1161004e5780636f9fb98a14610116578063746c57a314610141578063b688a3631461016c578063dbea52d8146101765761007b565b806333a99e04146100805780634e71d92d146100975780636bd5450a146100ae5780636c4470fb146100eb575b600080fd5b34801561008c57600080fd5b506100956101a1565b005b3480156100a357600080fd5b506100ac61031a565b005b3480156100ba57600080fd5b506100d560048036038101906100d091906106fb565b610496565b6040516100e29190610972565b60405180910390f35b3480156100f757600080fd5b506101006104ae565b60405161010d91906108d0565b60405180910390f35b34801561012257600080fd5b5061012b61053c565b6040516101389190610972565b60405180910390f35b34801561014d57600080fd5b50610156610544565b6040516101639190610972565b60405180910390f35b61017461054a565b005b34801561018257600080fd5b5061018b610668565b6040516101989190610972565b60405180910390f35b600360008054905010156101ea576040517f08c379a00000000000000000000000000000000000000000000000000000000081526004016101e1906108f2565b60405180910390fd5b6000806000805490506101fb61066e565b6102059190610a7e565b8154811061023c577f4e487b7100000000000000000000000000000000000000000000000000000000600052603260045260246000fd5b9060005260206000200160009054906101000a900473ffffffffffffffffffffffffffffffffffffffff1690508073ffffffffffffffffffffffffffffffffffffffff167f745c90b656b4aafe296c8ca35aeacfe56cb96c90e1d320e5da643fff1051b6c060405160405180910390a2600254600160008373ffffffffffffffffffffffffffffffffffffffff1673ffffffffffffffffffffffffffffffffffffffff16815260200190815260200160002060008282546102fd91906109e2565b9250508190555060026000905560008061031791906106a8565b50565b6000600160003373ffffffffffffffffffffffffffffffffffffffff1673ffffffffffffffffffffffffffffffffffffffff168152602001908152602001600020549050600081116103a1576040517f08c379a000000000000000000000000000000000000000000000000000000000815260040161039890610932565b60405180910390fd5b6000600160003373ffffffffffffffffffffffffffffffffffffffff1673ffffffffffffffffffffffffffffffffffffffff1681526020019081526020016000208190555060003373ffffffffffffffffffffffffffffffffffffffff168260405161040c9061087e565b60006040518083038185875af1925050503d8060008114610449576040519150601f19603f3d011682016040523d82523d6000602084013e61044e565b606091505b5050905080610492576040517f08c379a000000000000000000000000000000000000000000000000000000000815260040161048990610912565b60405180910390fd5b5050565b60016020528060005260406000206000915090505481565b6060600080548060200260200160405190810160405280929190818152602001828054801561053257602002820191906000526020600020905b8160009054906101000a900473ffffffffffffffffffffffffffffffffffffffff1673ffffffffffffffffffffffffffffffffffffffff16815260200190600101908083116104e8575b5050505050905090565b600047905090565b60025481565b670de0b6b3a76400003414610594576040517f08c379a000000000000000000000000000000000000000000000000000000000815260040161058b90610952565b60405180910390fd5b6000339080600181540180825580915050600190039060005260206000200160009091909190916101000a81548173ffffffffffffffffffffffffffffffffffffffff021916908373ffffffffffffffffffffffffffffffffffffffff160217905550670de0b6b3a76400006002600082825461061191906109e2565b925050819055503373ffffffffffffffffffffffffffffffffffffffff167fe1fffcc4923d04b559f4d29a8bfc6cda04eb5b0d3c460751c2402c5c5cc9109c3460405161065e9190610972565b60405180910390a2565b60035481565b6000444260008054905060405160200161068a93929190610893565b6040516020818303038152906040528051906020012060001c905090565b50805460008255906000526020600020908101906106c691906106c9565b50565b5b808211156106e25760008160009055506001016106ca565b5090565b6000813590506106f581610bb4565b92915050565b60006020828403121561070d57600080fd5b600061071b848285016106e6565b91505092915050565b6000610730838361073c565b60208301905092915050565b61074581610a38565b82525050565b60006107568261099d565b61076081856109b5565b935061076b8361098d565b8060005b8381101561079c5781516107838882610724565b975061078e836109a8565b92505060018101905061076f565b5085935050505092915050565b60006107b6601c836109d1565b91506107c182610b0d565b602082019050919050565b60006107d96015836109d1565b91506107e482610b36565b602082019050919050565b60006107fc6013836109d1565b915061080782610b5f565b602082019050919050565b600061081f6000836109c6565b915061082a82610b88565b600082019050919050565b60006108426016836109d1565b915061084d82610b8b565b602082019050919050565b61086181610a6a565b82525050565b61087861087382610a6a565b610a74565b82525050565b600061088982610812565b9150819050919050565b600061089f8286610867565b6020820191506108af8285610867565b6020820191506108bf8284610867565b602082019150819050949350505050565b600060208201905081810360008301526108ea818461074b565b905092915050565b6000602082019050818103600083015261090b816107a9565b9050919050565b6000602082019050818103600083015261092b816107cc565b9050919050565b6000602082019050818103600083015261094b816107ef565b9050919050565b6000602082019050818103600083015261096b81610835565b9050919050565b60006020820190506109876000830184610858565b92915050565b6000819050602082019050919050565b600081519050919050565b6000602082019050919050565b600082825260208201905092915050565b600081905092915050565b600082825260208201905092915050565b60006109ed82610a6a565b91506109f883610a6a565b9250827fffffffffffffffffffffffffffffffffffffffffffffffffffffffffffffffff03821115610a2d57610a2c610aaf565b5b828201905092915050565b6000610a4382610a4a565b9050919050565b600073ffffffffffffffffffffffffffffffffffffffff82169050919050565b6000819050919050565b6000819050919050565b6000610a8982610a6a565b9150610a9483610a6a565b925082610aa457610aa3610ade565b5b828206905092915050565b7f4e487b7100000000000000000000000000000000000000000000000000000000600052601160045260246000fd5b7f4e487b7100000000000000000000000000000000000000000000000000000000600052601260045260246000fd5b7f4d696e207061727469636970616e74732073686f756c64206265203300000000600082015250565b7f4574686572207472616e73666572206661696c65640000000000000000000000600082015250565b7f5765206f776520796f75206e6f7468696e672100000000000000000000000000600082015250565b50565b7f4d696e696d756d207472616e7366657220312045746800000000000000000000600082015250565b610bbd81610a38565b8114610bc857600080fd5b5056fea2646970667358221220f719636f7bd0b41f119f33e6605aa273a173efc9e229920a450c1e512d0efd2164736f6c63430008040033",
  "linkReferences": {},
  "deployedLinkReferences": {}
}